{
  "_format": "hh-sol-artifact-1",
  "contractName": "DegenToken",
  "sourceName": "contracts/DegenToken.sol",
  "abi": [
    {
      "inputs": [],
      "stateMutability": "nonpayable",
      "type": "constructor"
    },
    {
      "anonymous": false,
      "inputs": [
        {
          "indexed": true,
          "internalType": "address",
          "name": "owner",
          "type": "address"
        },
        {
          "indexed": true,
          "internalType": "address",
          "name": "spender",
          "type": "address"
        },
        {
          "indexed": false,
          "internalType": "uint256",
          "name": "value",
          "type": "uint256"
        }
      ],
      "name": "Approval",
      "type": "event"
    },
    {
      "anonymous": false,
      "inputs": [
        {
          "indexed": true,
          "internalType": "address",
          "name": "previousOwner",
          "type": "address"
        },
        {
          "indexed": true,
          "internalType": "address",
          "name": "newOwner",
          "type": "address"
        }
      ],
      "name": "OwnershipTransferred",
      "type": "event"
    },
    {
      "anonymous": false,
      "inputs": [
        {
          "indexed": true,
          "internalType": "address",
          "name": "from",
          "type": "address"
        },
        {
          "indexed": true,
          "internalType": "address",
          "name": "to",
          "type": "address"
        },
        {
          "indexed": false,
          "internalType": "uint256",
          "name": "value",
          "type": "uint256"
        }
      ],
      "name": "Transfer",
      "type": "event"
    },
    {
      "inputs": [
        {
          "internalType": "address",
          "name": "",
          "type": "address"
        },
        {
          "internalType": "uint256",
          "name": "",
          "type": "uint256"
        }
      ],
      "name": "accounts",
      "outputs": [
        {
          "internalType": "uint256",
          "name": "",
          "type": "uint256"
        }
      ],
      "stateMutability": "view",
      "type": "function"
    },
    {
      "inputs": [
        {
          "internalType": "address",
          "name": "owner",
          "type": "address"
        },
        {
          "internalType": "address",
          "name": "spender",
          "type": "address"
        }
      ],
      "name": "allowance",
      "outputs": [
        {
          "internalType": "uint256",
          "name": "",
          "type": "uint256"
        }
      ],
      "stateMutability": "view",
      "type": "function"
    },
    {
      "inputs": [
        {
          "internalType": "address",
          "name": "spender",
          "type": "address"
        },
        {
          "internalType": "uint256",
          "name": "amount",
          "type": "uint256"
        }
      ],
      "name": "approve",
      "outputs": [
        {
          "internalType": "bool",
          "name": "",
          "type": "bool"
        }
      ],
      "stateMutability": "nonpayable",
      "type": "function"
    },
    {
      "inputs": [
        {
          "internalType": "address",
          "name": "account",
          "type": "address"
        }
      ],
      "name": "balanceOf",
      "outputs": [
        {
          "internalType": "uint256",
          "name": "",
          "type": "uint256"
        }
      ],
      "stateMutability": "view",
      "type": "function"
    },
    {
      "inputs": [
        {
          "internalType": "uint256",
          "name": "amount",
          "type": "uint256"
        }
      ],
      "name": "burnTokens",
      "outputs": [],
      "stateMutability": "nonpayable",
      "type": "function"
    },
    {
      "inputs": [],
      "name": "checkBalance",
      "outputs": [
        {
          "internalType": "uint256",
          "name": "",
          "type": "uint256"
        }
      ],
      "stateMutability": "view",
      "type": "function"
    },
    {
      "inputs": [],
      "name": "decimals",
      "outputs": [
        {
          "internalType": "uint8",
          "name": "",
          "type": "uint8"
        }
      ],
      "stateMutability": "pure",
      "type": "function"
    },
    {
      "inputs": [
        {
          "internalType": "address",
          "name": "spender",
          "type": "address"
        },
        {
          "internalType": "uint256",
          "name": "subtractedValue",
          "type": "uint256"
        }
      ],
      "name": "decreaseAllowance",
      "outputs": [
        {
          "internalType": "bool",
          "name": "",
          "type": "bool"
        }
      ],
      "stateMutability": "nonpayable",
      "type": "function"
    },
    {
      "inputs": [
        {
          "internalType": "address",
          "name": "spender",
          "type": "address"
        },
        {
          "internalType": "uint256",
          "name": "addedValue",
          "type": "uint256"
        }
      ],
      "name": "increaseAllowance",
      "outputs": [
        {
          "internalType": "bool",
          "name": "",
          "type": "bool"
        }
      ],
      "stateMutability": "nonpayable",
      "type": "function"
    },
    {
      "inputs": [
        {
          "internalType": "uint256",
          "name": "",
          "type": "uint256"
        }
      ],
      "name": "itemNames",
      "outputs": [
        {
          "internalType": "string",
          "name": "",
          "type": "string"
        }
      ],
      "stateMutability": "view",
      "type": "function"
    },
    {
      "inputs": [
        {
          "internalType": "uint256",
          "name": "",
          "type": "uint256"
        }
      ],
      "name": "itemPrices",
      "outputs": [
        {
          "internalType": "uint256",
          "name": "",
          "type": "uint256"
        }
      ],
      "stateMutability": "view",
      "type": "function"
    },
    {
      "inputs": [
        {
          "internalType": "uint256",
          "name": "",
          "type": "uint256"
        }
      ],
      "name": "items",
      "outputs": [
        {
          "internalType": "string",
          "name": "",
          "type": "string"
        }
      ],
      "stateMutability": "view",
      "type": "function"
    },
    {
      "inputs": [
        {
          "internalType": "address",
          "name": "to",
          "type": "address"
        },
        {
          "internalType": "uint256",
          "name": "amount",
          "type": "uint256"
        }
      ],
      "name": "mint",
      "outputs": [],
      "stateMutability": "nonpayable",
      "type": "function"
    },
    {
      "inputs": [],
      "name": "name",
      "outputs": [
        {
          "internalType": "string",
          "name": "",
          "type": "string"
        }
      ],
      "stateMutability": "view",
      "type": "function"
    },
    {
      "inputs": [],
      "name": "owner",
      "outputs": [
        {
          "internalType": "address",
          "name": "",
          "type": "address"
        }
      ],
      "stateMutability": "view",
      "type": "function"
    },
    {
      "inputs": [
        {
          "internalType": "uint256",
          "name": "itemID",
          "type": "uint256"
        }
      ],
      "name": "redeemTokens",
      "outputs": [],
      "stateMutability": "nonpayable",
      "type": "function"
    },
    {
      "inputs": [],
      "name": "renounceOwnership",
      "outputs": [],
      "stateMutability": "nonpayable",
      "type": "function"
    },
    {
      "inputs": [],
      "name": "symbol",
      "outputs": [
        {
          "internalType": "string",
          "name": "",
          "type": "string"
        }
      ],
      "stateMutability": "view",
      "type": "function"
    },
    {
      "inputs": [],
      "name": "totalSupply",
      "outputs": [
        {
          "internalType": "uint256",
          "name": "",
          "type": "uint256"
        }
      ],
      "stateMutability": "view",
      "type": "function"
    },
    {
      "inputs": [
        {
          "internalType": "address",
          "name": "to",
          "type": "address"
        },
        {
          "internalType": "uint256",
          "name": "amount",
          "type": "uint256"
        }
      ],
      "name": "transfer",
      "outputs": [
        {
          "internalType": "bool",
          "name": "",
          "type": "bool"
        }
      ],
      "stateMutability": "nonpayable",
      "type": "function"
    },
    {
      "inputs": [
        {
          "internalType": "address",
          "name": "from",
          "type": "address"
        },
        {
          "internalType": "address",
          "name": "to",
          "type": "address"
        },
        {
          "internalType": "uint256",
          "name": "amount",
          "type": "uint256"
        }
      ],
      "name": "transferFrom",
      "outputs": [
        {
          "internalType": "bool",
          "name": "",
          "type": "bool"
        }
      ],
      "stateMutability": "nonpayable",
      "type": "function"
    },
    {
      "inputs": [
        {
          "internalType": "address",
          "name": "newOwner",
          "type": "address"
        }
      ],
      "name": "transferOwnership",
      "outputs": [],
      "stateMutability": "nonpayable",
      "type": "function"
    },
    {
      "inputs": [
        {
          "internalType": "address",
          "name": "to",
          "type": "address"
        },
        {
          "internalType": "uint256",
          "name": "amount",
          "type": "uint256"
        }
      ],
      "name": "transferTokens",
      "outputs": [],
      "stateMutability": "nonpayable",
      "type": "function"
    },
    {
      "inputs": [
        {
          "internalType": "uint256",
          "name": "itemID",
          "type": "uint256"
        }
      ],
      "name": "viewItemHeld",
      "outputs": [
        {
          "internalType": "uint256",
          "name": "",
          "type": "uint256"
        }
      ],
      "stateMutability": "view",
      "type": "function"
    },
    {
      "inputs": [],
      "name": "viewStore",
      "outputs": [
        {
          "internalType": "string[]",
          "name": "",
          "type": "string[]"
        }
      ],
      "stateMutability": "view",
      "type": "function"
    }
  ],
  "bytecode": "0x608060405260046009553480156200001657600080fd5b506040518060400160405280600581526020017f446567656e0000000000000000000000000000000000000000000000000000008152506040518060400160405280600381526020017f44474e0000000000000000000000000000000000000000000000000000000000815250816003908162000094919062000744565b508060049081620000a6919062000744565b505050620000c9620000bd620003fc60201b60201c565b6200040460201b60201c565b6040518060400160405280601e81526020017f30203a204865616c696e6720506f74696f6e204949203a2032352044474e000081525060066000808152602001908152602001600020908162000120919062000744565b506040518060400160405280601781526020017f31203a2053686f727473776f7264203a2031352044474e0000000000000000008152506006600060018152602001908152602001600020908162000179919062000744565b506040518060400160405280601d81526020017f32203a2046697265776f726b205374617274657273203a20352044474e00000081525060066000600281526020019081526020016000209081620001d2919062000744565b506040518060400160405280601b81526020017f33203a204261636b7061636b20536c6f74203a203130302044474e0000000000815250600660006003815260200190815260200160002090816200022b919062000744565b506040518060400160405280600e81526020017f4865616c696e6720506f74696f6e00000000000000000000000000000000000081525060076000808152602001908152602001600020908162000283919062000744565b506040518060400160405280600a81526020017f53686f727473776f72640000000000000000000000000000000000000000000081525060076000600181526020019081526020016000209081620002dc919062000744565b506040518060400160405280601181526020017f46697265776f726b2053746172746572730000000000000000000000000000008152506007600060028152602001908152602001600020908162000335919062000744565b506040518060400160405280600d81526020017f4261636b7061636b20536c6f7400000000000000000000000000000000000000815250600760006003815260200190815260200160002090816200038e919062000744565b5060196008600080815260200190815260200160002081905550600f600860006001815260200190815260200160002081905550600560086000600281526020019081526020016000208190555060646008600060038152602001908152602001600020819055506200082b565b600033905090565b6000600560009054906101000a900473ffffffffffffffffffffffffffffffffffffffff16905081600560006101000a81548173ffffffffffffffffffffffffffffffffffffffff021916908373ffffffffffffffffffffffffffffffffffffffff1602179055508173ffffffffffffffffffffffffffffffffffffffff168173ffffffffffffffffffffffffffffffffffffffff167f8be0079c531659141344cd1fd0a4f28419497f9722a3daafe3b4186f6b6457e060405160405180910390a35050565b600081519050919050565b7f4e487b7100000000000000000000000000000000000000000000000000000000600052604160045260246000fd5b7f4e487b7100000000000000000000000000000000000000000000000000000000600052602260045260246000fd5b600060028204905060018216806200054c57607f821691505b60208210810362000562576200056162000504565b5b50919050565b60008190508160005260206000209050919050565b60006020601f8301049050919050565b600082821b905092915050565b600060088302620005cc7fffffffffffffffffffffffffffffffffffffffffffffffffffffffffffffffff826200058d565b620005d886836200058d565b95508019841693508086168417925050509392505050565b6000819050919050565b6000819050919050565b6000620006256200061f6200061984620005f0565b620005fa565b620005f0565b9050919050565b6000819050919050565b620006418362000604565b6200065962000650826200062c565b8484546200059a565b825550505050565b600090565b6200067062000661565b6200067d81848462000636565b505050565b5b81811015620006a5576200069960008262000666565b60018101905062000683565b5050565b601f821115620006f457620006be8162000568565b620006c9846200057d565b81016020851015620006d9578190505b620006f1620006e8856200057d565b83018262000682565b50505b505050565b600082821c905092915050565b60006200071960001984600802620006f9565b1980831691505092915050565b600062000734838362000706565b9150826002028217905092915050565b6200074f82620004ca565b67ffffffffffffffff8111156200076b576200076a620004d5565b5b62000777825462000533565b62000784828285620006a9565b600060209050601f831160018114620007bc5760008415620007a7578287015190505b620007b3858262000726565b86555062000823565b601f198416620007cc8662000568565b60005b82811015620007f657848901518255600182019150602085019450602081019050620007cf565b8683101562000816578489015162000812601f89168262000706565b8355505b6001600288020188555050505b505050505050565b612832806200083b6000396000f3fe608060405234801561001057600080fd5b50600436106101735760003560e01c80638da5cb5b116100de578063bf91ad9e11610097578063c71daccb11610071578063c71daccb14610498578063dd62ed3e146104b6578063f2fde38b146104e6578063fe7619bc1461050257610173565b8063bf91ad9e14610408578063bfb231d214610438578063c34a5b981461046857610173565b80638da5cb5b1461033457806395d89b4114610352578063a457c2d714610370578063a6e158f8146103a0578063a9059cbb146103bc578063bec3fa17146103ec57610173565b806340c10f191161013057806340c10f191461026257806361a4da961461027e5780636d1b229d146102ae57806370a08231146102ca578063715018a6146102fa578063875245811461030457610173565b806306fdde0314610178578063095ea7b31461019657806318160ddd146101c657806323b872dd146101e4578063313ce567146102145780633950935114610232575b600080fd5b610180610520565b60405161018d9190611ab3565b60405180910390f35b6101b060048036038101906101ab9190611b6e565b6105b2565b6040516101bd9190611bc9565b60405180910390f35b6101ce6105d5565b6040516101db9190611bf3565b60405180910390f35b6101fe60048036038101906101f99190611c0e565b6105df565b60405161020b9190611bc9565b60405180910390f35b61021c61060e565b6040516102299190611c7d565b60405180910390f35b61024c60048036038101906102479190611b6e565b610613565b6040516102599190611bc9565b60405180910390f35b61027c60048036038101906102779190611b6e565b61064a565b005b61029860048036038101906102939190611c98565b610660565b6040516102a59190611bf3565b60405180910390f35b6102c860048036038101906102c39190611c98565b61070f565b005b6102e460048036038101906102df9190611cc5565b610766565b6040516102f19190611bf3565b60405180910390f35b6103026107ae565b005b61031e60048036038101906103199190611b6e565b6107c2565b60405161032b9190611bf3565b60405180910390f35b61033c6107e7565b6040516103499190611d01565b60405180910390f35b61035a610811565b6040516103679190611ab3565b60405180910390f35b61038a60048036038101906103859190611b6e565b6108a3565b6040516103979190611bc9565b60405180910390f35b6103ba60048036038101906103b59190611c98565b61091a565b005b6103d660048036038101906103d19190611b6e565b610c3c565b6040516103e39190611bc9565b60405180910390f35b61040660048036038101906104019190611b6e565b610c5f565b005b610422600480360381019061041d9190611c98565b610cc4565b60405161042f9190611bf3565b60405180910390f35b610452600480360381019061044d9190611c98565b610cdc565b60405161045f9190611ab3565b60405180910390f35b610482600480360381019061047d9190611c98565b610d7c565b60405161048f9190611ab3565b60405180910390f35b6104a0610e1c565b6040516104ad9190611bf3565b60405180910390f35b6104d060048036038101906104cb9190611d1c565b610e9d565b6040516104dd9190611bf3565b60405180910390f35b61050060048036038101906104fb9190611cc5565b610f24565b005b61050a610fa7565b6040516105179190611e68565b60405180910390f35b60606003805461052f90611eb9565b80601f016020809104026020016040519081016040528092919081815260200182805461055b90611eb9565b80156105a85780601f1061057d576101008083540402835291602001916105a8565b820191906000526020600020905b81548152906001019060200180831161058b57829003601f168201915b5050505050905090565b6000806105bd6110df565b90506105ca8185856110e7565b600191505092915050565b6000600254905090565b6000806105ea6110df565b90506105f78582856112b0565b61060285858561133c565b60019150509392505050565b600090565b60008061061e6110df565b905061063f8185856106308589610e9d565b61063a9190611f19565b6110e7565b600191505092915050565b6106526115b2565b61065c8282611630565b5050565b6000806008600084815260200190815260200160002054116106b7576040517f08c379a00000000000000000000000000000000000000000000000000000000081526004016106ae90611f99565b60405180910390fd5b600a60003373ffffffffffffffffffffffffffffffffffffffff1673ffffffffffffffffffffffffffffffffffffffff1681526020019081526020016000206000838152602001908152602001600020549050919050565b80610718610e1c565b1015610759576040517f08c379a00000000000000000000000000000000000000000000000000000000081526004016107509061202b565b60405180910390fd5b6107633382611786565b50565b60008060008373ffffffffffffffffffffffffffffffffffffffff1673ffffffffffffffffffffffffffffffffffffffff168152602001908152602001600020549050919050565b6107b66115b2565b6107c06000611953565b565b600a602052816000526040600020602052806000526040600020600091509150505481565b6000600560009054906101000a900473ffffffffffffffffffffffffffffffffffffffff16905090565b60606004805461082090611eb9565b80601f016020809104026020016040519081016040528092919081815260200182805461084c90611eb9565b80156108995780601f1061086e57610100808354040283529160200191610899565b820191906000526020600020905b81548152906001019060200180831161087c57829003601f168201915b5050505050905090565b6000806108ae6110df565b905060006108bc8286610e9d565b905083811015610901576040517f08c379a00000000000000000000000000000000000000000000000000000000081526004016108f8906120bd565b60405180910390fd5b61090e82868684036110e7565b60019250505092915050565b6000600860008381526020019081526020016000205411610970576040517f08c379a000000000000000000000000000000000000000000000000000000000815260040161096790611f99565b60405180910390fd5b600860008281526020019081526020016000205461098c610e1c565b10156109cd576040517f08c379a00000000000000000000000000000000000000000000000000000000081526004016109c49061202b565b60405180910390fd5b6000600a60003373ffffffffffffffffffffffffffffffffffffffff1673ffffffffffffffffffffffffffffffffffffffff168152602001908152602001600020600083815260200190815260200160002054905060003073ffffffffffffffffffffffffffffffffffffffff166370a08231336040518263ffffffff1660e01b8152600401610a5d9190611d01565b602060405180830381865afa158015610a7a573d6000803e3d6000fd5b505050506040513d601f19601f82011682018060405250810190610a9e91906120f2565b90506001600a60003373ffffffffffffffffffffffffffffffffffffffff1673ffffffffffffffffffffffffffffffffffffffff16815260200190815260200160002060008581526020019081526020016000206000828254610b019190611f19565b92505081905550610b24600860008581526020019081526020016000205461070f565b600182610b319190611f19565b600a60003373ffffffffffffffffffffffffffffffffffffffff1673ffffffffffffffffffffffffffffffffffffffff16815260200190815260200160002060008581526020019081526020016000205414610b9057610b8f61211f565b5b600860008481526020019081526020016000205481610baf919061214e565b3073ffffffffffffffffffffffffffffffffffffffff166370a08231336040518263ffffffff1660e01b8152600401610be89190611d01565b602060405180830381865afa158015610c05573d6000803e3d6000fd5b505050506040513d601f19601f82011682018060405250810190610c2991906120f2565b14610c3757610c3661211f565b5b505050565b600080610c476110df565b9050610c5481858561133c565b600191505092915050565b80610c68610e1c565b1015610ca9576040517f08c379a0000000000000000000000000000000000000000000000000000000008152600401610ca09061202b565b60405180910390fd5b610cb333826105b2565b50610cbf3383836105df565b505050565b60086020528060005260406000206000915090505481565b60066020528060005260406000206000915090508054610cfb90611eb9565b80601f0160208091040260200160405190810160405280929190818152602001828054610d2790611eb9565b8015610d745780601f10610d4957610100808354040283529160200191610d74565b820191906000526020600020905b815481529060010190602001808311610d5757829003601f168201915b505050505081565b60076020528060005260406000206000915090508054610d9b90611eb9565b80601f0160208091040260200160405190810160405280929190818152602001828054610dc790611eb9565b8015610e145780601f10610de957610100808354040283529160200191610e14565b820191906000526020600020905b815481529060010190602001808311610df757829003601f168201915b505050505081565b60003073ffffffffffffffffffffffffffffffffffffffff166370a08231336040518263ffffffff1660e01b8152600401610e579190611d01565b602060405180830381865afa158015610e74573d6000803e3d6000fd5b505050506040513d601f19601f82011682018060405250810190610e9891906120f2565b905090565b6000600160008473ffffffffffffffffffffffffffffffffffffffff1673ffffffffffffffffffffffffffffffffffffffff16815260200190815260200160002060008373ffffffffffffffffffffffffffffffffffffffff1673ffffffffffffffffffffffffffffffffffffffff16815260200190815260200160002054905092915050565b610f2c6115b2565b600073ffffffffffffffffffffffffffffffffffffffff168173ffffffffffffffffffffffffffffffffffffffff1603610f9b576040517f08c379a0000000000000000000000000000000000000000000000000000000008152600401610f92906121f4565b60405180910390fd5b610fa481611953565b50565b6060600060095467ffffffffffffffff811115610fc757610fc6612214565b5b604051908082528060200260200182016040528015610ffa57816020015b6060815260200190600190039081610fe55790505b50905060005b6009548110156110d75760066000828152602001908152602001600020805461102890611eb9565b80601f016020809104026020016040519081016040528092919081815260200182805461105490611eb9565b80156110a15780601f10611076576101008083540402835291602001916110a1565b820191906000526020600020905b81548152906001019060200180831161108457829003601f168201915b50505050508282815181106110b9576110b8612243565b5b602002602001018190525080806110cf90612272565b915050611000565b508091505090565b600033905090565b600073ffffffffffffffffffffffffffffffffffffffff168373ffffffffffffffffffffffffffffffffffffffff1603611156576040517f08c379a000000000000000000000000000000000000000000000000000000000815260040161114d9061232c565b60405180910390fd5b600073ffffffffffffffffffffffffffffffffffffffff168273ffffffffffffffffffffffffffffffffffffffff16036111c5576040517f08c379a00000000000000000000000000000000000000000000000000000000081526004016111bc906123be565b60405180910390fd5b80600160008573ffffffffffffffffffffffffffffffffffffffff1673ffffffffffffffffffffffffffffffffffffffff16815260200190815260200160002060008473ffffffffffffffffffffffffffffffffffffffff1673ffffffffffffffffffffffffffffffffffffffff168152602001908152602001600020819055508173ffffffffffffffffffffffffffffffffffffffff168373ffffffffffffffffffffffffffffffffffffffff167f8c5be1e5ebec7d5bd14f71427d1e84f3dd0314c0f7b2291e5b200ac8c7c3b925836040516112a39190611bf3565b60405180910390a3505050565b60006112bc8484610e9d565b90507fffffffffffffffffffffffffffffffffffffffffffffffffffffffffffffffff81146113365781811015611328576040517f08c379a000000000000000000000000000000000000000000000000000000000815260040161131f9061242a565b60405180910390fd5b61133584848484036110e7565b5b50505050565b600073ffffffffffffffffffffffffffffffffffffffff168373ffffffffffffffffffffffffffffffffffffffff16036113ab576040517f08c379a00000000000000000000000000000000000000000000000000000000081526004016113a2906124bc565b60405180910390fd5b600073ffffffffffffffffffffffffffffffffffffffff168273ffffffffffffffffffffffffffffffffffffffff160361141a576040517f08c379a00000000000000000000000000000000000000000000000000000000081526004016114119061254e565b60405180910390fd5b611425838383611a19565b60008060008573ffffffffffffffffffffffffffffffffffffffff1673ffffffffffffffffffffffffffffffffffffffff168152602001908152602001600020549050818110156114ab576040517f08c379a00000000000000000000000000000000000000000000000000000000081526004016114a2906125e0565b60405180910390fd5b8181036000808673ffffffffffffffffffffffffffffffffffffffff1673ffffffffffffffffffffffffffffffffffffffff16815260200190815260200160002081905550816000808573ffffffffffffffffffffffffffffffffffffffff1673ffffffffffffffffffffffffffffffffffffffff168152602001908152602001600020600082825401925050819055508273ffffffffffffffffffffffffffffffffffffffff168473ffffffffffffffffffffffffffffffffffffffff167fddf252ad1be2c89b69c2b068fc378daa952ba7f163c4a11628f55a4df523b3ef846040516115999190611bf3565b60405180910390a36115ac848484611a1e565b50505050565b6115ba6110df565b73ffffffffffffffffffffffffffffffffffffffff166115d86107e7565b73ffffffffffffffffffffffffffffffffffffffff161461162e576040517f08c379a00000000000000000000000000000000000000000000000000000000081526004016116259061264c565b60405180910390fd5b565b600073ffffffffffffffffffffffffffffffffffffffff168273ffffffffffffffffffffffffffffffffffffffff160361169f576040517f08c379a0000000000000000000000000000000000000000000000000000000008152600401611696906126b8565b60405180910390fd5b6116ab60008383611a19565b80600260008282546116bd9190611f19565b92505081905550806000808473ffffffffffffffffffffffffffffffffffffffff1673ffffffffffffffffffffffffffffffffffffffff168152602001908152602001600020600082825401925050819055508173ffffffffffffffffffffffffffffffffffffffff16600073ffffffffffffffffffffffffffffffffffffffff167fddf252ad1be2c89b69c2b068fc378daa952ba7f163c4a11628f55a4df523b3ef8360405161176e9190611bf3565b60405180910390a361178260008383611a1e565b5050565b600073ffffffffffffffffffffffffffffffffffffffff168273ffffffffffffffffffffffffffffffffffffffff16036117f5576040517f08c379a00000000000000000000000000000000000000000000000000000000081526004016117ec9061274a565b60405180910390fd5b61180182600083611a19565b60008060008473ffffffffffffffffffffffffffffffffffffffff1673ffffffffffffffffffffffffffffffffffffffff16815260200190815260200160002054905081811015611887576040517f08c379a000000000000000000000000000000000000000000000000000000000815260040161187e906127dc565b60405180910390fd5b8181036000808573ffffffffffffffffffffffffffffffffffffffff1673ffffffffffffffffffffffffffffffffffffffff1681526020019081526020016000208190555081600260008282540392505081905550600073ffffffffffffffffffffffffffffffffffffffff168373ffffffffffffffffffffffffffffffffffffffff167fddf252ad1be2c89b69c2b068fc378daa952ba7f163c4a11628f55a4df523b3ef8460405161193a9190611bf3565b60405180910390a361194e83600084611a1e565b505050565b6000600560009054906101000a900473ffffffffffffffffffffffffffffffffffffffff16905081600560006101000a81548173ffffffffffffffffffffffffffffffffffffffff021916908373ffffffffffffffffffffffffffffffffffffffff1602179055508173ffffffffffffffffffffffffffffffffffffffff168173ffffffffffffffffffffffffffffffffffffffff167f8be0079c531659141344cd1fd0a4f28419497f9722a3daafe3b4186f6b6457e060405160405180910390a35050565b505050565b505050565b600081519050919050565b600082825260208201905092915050565b60005b83811015611a5d578082015181840152602081019050611a42565b60008484015250505050565b6000601f19601f8301169050919050565b6000611a8582611a23565b611a8f8185611a2e565b9350611a9f818560208601611a3f565b611aa881611a69565b840191505092915050565b60006020820190508181036000830152611acd8184611a7a565b905092915050565b600080fd5b600073ffffffffffffffffffffffffffffffffffffffff82169050919050565b6000611b0582611ada565b9050919050565b611b1581611afa565b8114611b2057600080fd5b50565b600081359050611b3281611b0c565b92915050565b6000819050919050565b611b4b81611b38565b8114611b5657600080fd5b50565b600081359050611b6881611b42565b92915050565b60008060408385031215611b8557611b84611ad5565b5b6000611b9385828601611b23565b9250506020611ba485828601611b59565b9150509250929050565b60008115159050919050565b611bc381611bae565b82525050565b6000602082019050611bde6000830184611bba565b92915050565b611bed81611b38565b82525050565b6000602082019050611c086000830184611be4565b92915050565b600080600060608486031215611c2757611c26611ad5565b5b6000611c3586828701611b23565b9350506020611c4686828701611b23565b9250506040611c5786828701611b59565b9150509250925092565b600060ff82169050919050565b611c7781611c61565b82525050565b6000602082019050611c926000830184611c6e565b92915050565b600060208284031215611cae57611cad611ad5565b5b6000611cbc84828501611b59565b91505092915050565b600060208284031215611cdb57611cda611ad5565b5b6000611ce984828501611b23565b91505092915050565b611cfb81611afa565b82525050565b6000602082019050611d166000830184611cf2565b92915050565b60008060408385031215611d3357611d32611ad5565b5b6000611d4185828601611b23565b9250506020611d5285828601611b23565b9150509250929050565b600081519050919050565b600082825260208201905092915050565b6000819050602082019050919050565b600082825260208201905092915050565b6000611da482611a23565b611dae8185611d88565b9350611dbe818560208601611a3f565b611dc781611a69565b840191505092915050565b6000611dde8383611d99565b905092915050565b6000602082019050919050565b6000611dfe82611d5c565b611e088185611d67565b935083602082028501611e1a85611d78565b8060005b85811015611e565784840389528151611e378582611dd2565b9450611e4283611de6565b925060208a01995050600181019050611e1e565b50829750879550505050505092915050565b60006020820190508181036000830152611e828184611df3565b905092915050565b7f4e487b7100000000000000000000000000000000000000000000000000000000600052602260045260246000fd5b60006002820490506001821680611ed157607f821691505b602082108103611ee457611ee3611e8a565b5b50919050565b7f4e487b7100000000000000000000000000000000000000000000000000000000600052601160045260246000fd5b6000611f2482611b38565b9150611f2f83611b38565b9250828201905080821115611f4757611f46611eea565b5b92915050565b7f4974656d20646f65736e27742065786973742e00000000000000000000000000600082015250565b6000611f83601383611a2e565b9150611f8e82611f4d565b602082019050919050565b60006020820190508181036000830152611fb281611f76565b9050919050565b7f596f7520646f6e2774206861766520656e6f75676820446567656e20546f6b6560008201527f6e732e0000000000000000000000000000000000000000000000000000000000602082015250565b6000612015602383611a2e565b915061202082611fb9565b604082019050919050565b6000602082019050818103600083015261204481612008565b9050919050565b7f45524332303a2064656372656173656420616c6c6f77616e63652062656c6f7760008201527f207a65726f000000000000000000000000000000000000000000000000000000602082015250565b60006120a7602583611a2e565b91506120b28261204b565b604082019050919050565b600060208201905081810360008301526120d68161209a565b9050919050565b6000815190506120ec81611b42565b92915050565b60006020828403121561210857612107611ad5565b5b6000612116848285016120dd565b91505092915050565b7f4e487b7100000000000000000000000000000000000000000000000000000000600052600160045260246000fd5b600061215982611b38565b915061216483611b38565b925082820390508181111561217c5761217b611eea565b5b92915050565b7f4f776e61626c653a206e6577206f776e657220697320746865207a65726f206160008201527f6464726573730000000000000000000000000000000000000000000000000000602082015250565b60006121de602683611a2e565b91506121e982612182565b604082019050919050565b6000602082019050818103600083015261220d816121d1565b9050919050565b7f4e487b7100000000000000000000000000000000000000000000000000000000600052604160045260246000fd5b7f4e487b7100000000000000000000000000000000000000000000000000000000600052603260045260246000fd5b600061227d82611b38565b91507fffffffffffffffffffffffffffffffffffffffffffffffffffffffffffffffff82036122af576122ae611eea565b5b600182019050919050565b7f45524332303a20617070726f76652066726f6d20746865207a65726f2061646460008201527f7265737300000000000000000000000000000000000000000000000000000000602082015250565b6000612316602483611a2e565b9150612321826122ba565b604082019050919050565b6000602082019050818103600083015261234581612309565b9050919050565b7f45524332303a20617070726f766520746f20746865207a65726f20616464726560008201527f7373000000000000000000000000000000000000000000000000000000000000602082015250565b60006123a8602283611a2e565b91506123b38261234c565b604082019050919050565b600060208201905081810360008301526123d78161239b565b9050919050565b7f45524332303a20696e73756666696369656e7420616c6c6f77616e6365000000600082015250565b6000612414601d83611a2e565b915061241f826123de565b602082019050919050565b6000602082019050818103600083015261244381612407565b9050919050565b7f45524332303a207472616e736665722066726f6d20746865207a65726f20616460008201527f6472657373000000000000000000000000000000000000000000000000000000602082015250565b60006124a6602583611a2e565b91506124b18261244a565b604082019050919050565b600060208201905081810360008301526124d581612499565b9050919050565b7f45524332303a207472616e7366657220746f20746865207a65726f206164647260008201527f6573730000000000000000000000000000000000000000000000000000000000602082015250565b6000612538602383611a2e565b9150612543826124dc565b604082019050919050565b600060208201905081810360008301526125678161252b565b9050919050565b7f45524332303a207472616e7366657220616d6f756e742065786365656473206260008201527f616c616e63650000000000000000000000000000000000000000000000000000602082015250565b60006125ca602683611a2e565b91506125d58261256e565b604082019050919050565b600060208201905081810360008301526125f9816125bd565b9050919050565b7f4f776e61626c653a2063616c6c6572206973206e6f7420746865206f776e6572600082015250565b6000612636602083611a2e565b915061264182612600565b602082019050919050565b6000602082019050818103600083015261266581612629565b9050919050565b7f45524332303a206d696e7420746f20746865207a65726f206164647265737300600082015250565b60006126a2601f83611a2e565b91506126ad8261266c565b602082019050919050565b600060208201905081810360008301526126d181612695565b9050919050565b7f45524332303a206275726e2066726f6d20746865207a65726f2061646472657360008201527f7300000000000000000000000000000000000000000000000000000000000000602082015250565b6000612734602183611a2e565b915061273f826126d8565b604082019050919050565b6000602082019050818103600083015261276381612727565b9050919050565b7f45524332303a206275726e20616d6f756e7420657863656564732062616c616e60008201527f6365000000000000000000000000000000000000000000000000000000000000602082015250565b60006127c6602283611a2e565b91506127d18261276a565b604082019050919050565b600060208201905081810360008301526127f5816127b9565b905091905056fea26469706673582212202c906dd294fd71b60b3a810bf8d89c77f7f853d8f93469b9967548ace650600a64736f6c63430008120033",
  "linkReferences": {},
  "deployedLinkReferences": {}
}